{
  "contractName": "ContractDonaciones",
  "abi": [
    {
      "anonymous": false,
      "inputs": [
        {
          "indexed": false,
          "name": "_addressONG",
          "type": "address"
        }
      ],
      "name": "checkAdvances",
      "type": "event"
    },
    {
      "constant": false,
      "inputs": [
        {
          "name": "_nombre",
          "type": "string"
        }
      ],
      "name": "addDonator",
      "outputs": [
        {
          "name": "",
          "type": "bool"
        }
      ],
      "payable": false,
      "stateMutability": "nonpayable",
      "type": "function"
    },
    {
      "constant": false,
      "inputs": [
        {
          "name": "_nombre",
          "type": "string"
        },
        {
          "name": "_vision",
          "type": "string"
        },
        {
          "name": "_mision",
          "type": "string"
        },
        {
          "name": "_objective",
          "type": "int256"
        }
      ],
      "name": "addONG",
      "outputs": [
        {
          "name": "",
          "type": "bool"
        }
      ],
      "payable": false,
      "stateMutability": "nonpayable",
      "type": "function"
    },
    {
      "constant": false,
      "inputs": [
        {
          "name": "_addressONG",
          "type": "address"
        }
      ],
      "name": "donation",
      "outputs": [],
      "payable": true,
      "stateMutability": "payable",
      "type": "function"
    }
  ],
  "bytecode": "0x608060405234801561001057600080fd5b506107e2806100206000396000f300608060405260043610610057576000357c0100000000000000000000000000000000000000000000000000000000900463ffffffff1680632d6eb7681461005c578063640998e014610173578063f457ee5a146101f4575b600080fd5b34801561006857600080fd5b50610159600480360381019080803590602001908201803590602001908080601f0160208091040260200160405190810160405280939291908181526020018383808284378201915050505050509192919290803590602001908201803590602001908080601f0160208091040260200160405190810160405280939291908181526020018383808284378201915050505050509192919290803590602001908201803590602001908080601f01602080910402602001604051908101604052809392919081815260200183838082843782019150505050505091929192908035906020019092919050505061022a565b604051808215151515815260200191505060405180910390f35b34801561017f57600080fd5b506101da600480360381019080803590602001908201803590602001908080601f016020809104026020016040519081016040528093929190818152602001838380828437820191505050505050919291929050505061056b565b604051808215151515815260200191505060405180910390f35b610228600480360381019080803573ffffffffffffffffffffffffffffffffffffffff16906020019092919050505061070e565b005b600080600160003373ffffffffffffffffffffffffffffffffffffffff1673ffffffffffffffffffffffffffffffffffffffff16815260200190815260200160002060060160009054906101000a900460ff16151561055d5785600160003373ffffffffffffffffffffffffffffffffffffffff1673ffffffffffffffffffffffffffffffffffffffff16815260200190815260200160002060010190805190602001906102d9929190610711565b5060018060003373ffffffffffffffffffffffffffffffffffffffff1673ffffffffffffffffffffffffffffffffffffffff16815260200190815260200160002060060160006101000a81548160ff02191690831515021790555033600160003373ffffffffffffffffffffffffffffffffffffffff1673ffffffffffffffffffffffffffffffffffffffff16815260200190815260200160002060000160006101000a81548173ffffffffffffffffffffffffffffffffffffffff021916908373ffffffffffffffffffffffffffffffffffffffff16021790555084600160003373ffffffffffffffffffffffffffffffffffffffff1673ffffffffffffffffffffffffffffffffffffffff168152602001908152602001600020600301908051906020019061040b929190610711565b5083600160003373ffffffffffffffffffffffffffffffffffffffff1673ffffffffffffffffffffffffffffffffffffffff1681526020019081526020016000206002019080519060200190610462929190610711565b5082600160003373ffffffffffffffffffffffffffffffffffffffff1673ffffffffffffffffffffffffffffffffffffffff16815260200190815260200160002060040181905550336000876040518082805190602001908083835b6020831015156104e357805182526020820191506020810190506020830392506104be565b6001836020036101000a038019825116818451168082178552505050505050905001915050908152602001604051809103902060006101000a81548173ffffffffffffffffffffffffffffffffffffffff021916908373ffffffffffffffffffffffffffffffffffffffff16021790555060019050610562565b600090505b50949350505050565b600080600260003373ffffffffffffffffffffffffffffffffffffffff1673ffffffffffffffffffffffffffffffffffffffff16815260200190815260200160002060020160009054906101000a900460ff1615156107005782600260003373ffffffffffffffffffffffffffffffffffffffff1673ffffffffffffffffffffffffffffffffffffffff168152602001908152602001600020600101908051906020019061061a929190610711565b506001600260003373ffffffffffffffffffffffffffffffffffffffff1673ffffffffffffffffffffffffffffffffffffffff16815260200190815260200160002060020160006101000a81548160ff02191690831515021790555033600260003373ffffffffffffffffffffffffffffffffffffffff1673ffffffffffffffffffffffffffffffffffffffff16815260200190815260200160002060000160006101000a81548173ffffffffffffffffffffffffffffffffffffffff021916908373ffffffffffffffffffffffffffffffffffffffff16021790555060019050610705565b600090505b80915050919050565b50565b828054600181600116156101000203166002900490600052602060002090601f016020900481019282601f1061075257805160ff1916838001178555610780565b82800160010185558215610780579182015b8281111561077f578251825591602001919060010190610764565b5b50905061078d9190610791565b5090565b6107b391905b808211156107af576000816000905550600101610797565b5090565b905600a165627a7a723058203339e4c16e7b03a9fd0028efe2b1b23d168d8065d18bc519ad09775a717227ed0029",
  "source": "pragma solidity ^0.4.17;\r\n\r\nimport \"./ConvertLib.sol\";\r\n\r\n// This is just a simple example of a coin-like contract.\r\n// It is not standards compatible and cannot be expected to talk to other\r\n// coin/token contracts. If you want to create a standards-compliant\r\n// token, see: https://github.com/ConsenSys/Tokens. Cheers!\r\n\r\ncontract ContractDonaciones {\r\n\r\nstruct DateTimeCreation {\r\n        uint16 year;\r\n        uint8 month;\r\n        uint8 day;\r\n\t}\r\n\r\n\tstruct ONG{\r\n\t\taddress addr;\r\n\t\tstring nombre;\r\n\t\tstring mision;\r\n\t\tstring vision;\r\n\t\tint objective;\r\n\t\tint actualBalance;\r\n\t\t//DateTimeCreation creationDate;\r\n\t\tbool exists;\r\n\t\tmapping(address=>Donator) donatorsOfONG;\r\n\t}\r\n\r\n\tstruct Donator{\r\n\t\taddress addr;\r\n\t\tstring nombre;\r\n\t\tbool exists;\r\n\t}\r\n\r\n\tmapping (string=> address) ONGnames;\r\n\tmapping (address=> ONG) ONGs;\r\n\tmapping(address => Donator) donators;\r\n\r\n\tevent checkAdvances (address _addressONG);\r\n\r\n\tfunction addDonator(string _nombre) public returns (bool){\r\n\t\tbool donatorAdded;\r\n\t\tif(!donators[msg.sender].exists) {\r\n\t\t\tdonators[msg.sender].nombre = _nombre;\r\n\t\t\tdonators[msg.sender].exists=true;\r\n\t\t\tdonators[msg.sender].addr=msg.sender;\r\n\t\t\tdonatorAdded=true;\r\n\t\t}\r\n\r\n\t\telse{\r\n\t\t\tdonatorAdded=false; \r\n\t\t}\t\r\n\t\treturn donatorAdded;\t\r\n\t}\r\n\r\n\tfunction addONG(string _nombre, string _vision, string _mision, int _objective) public returns (bool){\r\n\t\tbool ONGAdded;\r\n\t\tif(!ONGs[msg.sender].exists) {\r\n\t\t\tONGs[msg.sender].nombre = _nombre;\r\n\t\t\tONGs[msg.sender].exists=true;\r\n\t\t\tONGs[msg.sender].addr=msg.sender;\r\n\t\t\tONGs[msg.sender].vision = _vision;\r\n\t\t\tONGs[msg.sender].mision=_mision;\r\n\t\t\tONGs[msg.sender].objective=_objective;\r\n\t\t\t//ONGs[msg.sender].creationDate=_creationDate;\r\n\t\t\tONGnames[_nombre]=msg.sender;\r\n\t\t\tONGAdded=true;\r\n\t\t}\r\n\r\n\t\telse{\r\n\t\t\tONGAdded=false; \r\n\t\t}\t\t\r\n\t}\r\n\r\n\tfunction donation(address _addressONG) public payable{\r\n\t\tif(msg.sender.balance >= msg.value ){\r\n\t\t\t\t\t\t //las variables se actualizan en el contrato o en la js? \r\n\t\t\t\t\t\t\t\t\t\t\t\t //como funciona el oracle? como se intercambia informacion con el contrato?\r\n\t\t\t\t\t\t\t\t\t\t\t\t //como intercambio informacion, con la innterfaz grafica?\r\n\t\t\t\t\t\t\t\t\t\t\t\t //metamask, como trabajamos con las direcciones de ganache?\r\n\r\n\t\t}\r\n\r\n\r\n\r\n\t}\r\n}\r\n",
  "sourcePath": "C:\\Users\\Jimena\\webPack\\contracts\\ContractDonaciones.sol",
  "compiler": {
    "name": "solc",
    "version": "0.4.24+commit.e67f0147.Emscripten.clang"
  },
  "schemaVersion": "2.0.0",
  "updatedAt": "2018-06-08T01:31:44.957Z"
}