{
  "contractName": "ContractDonaciones",
  "abi": [
    {
      "anonymous": false,
      "inputs": [
        {
          "indexed": false,
          "name": "_addressONG",
          "type": "address"
        }
      ],
      "name": "checkAdvances",
      "type": "event"
    },
    {
      "constant": false,
      "inputs": [
        {
          "name": "_nombre",
          "type": "string"
        }
      ],
      "name": "addDonator",
      "outputs": [
        {
          "name": "",
          "type": "bool"
        }
      ],
      "payable": false,
      "stateMutability": "nonpayable",
      "type": "function"
    },
    {
      "constant": false,
      "inputs": [
        {
          "name": "_nombre",
          "type": "string"
        },
        {
          "name": "_vision",
          "type": "string"
        },
        {
          "name": "_mision",
          "type": "string"
        },
        {
          "name": "_objective",
          "type": "int256"
        }
      ],
      "name": "addONG",
      "outputs": [
        {
          "name": "",
          "type": "bool"
        }
      ],
      "payable": false,
      "stateMutability": "nonpayable",
      "type": "function"
    },
    {
      "constant": true,
      "inputs": [
        {
          "name": "_addressONG",
          "type": "address"
        }
      ],
      "name": "getONG",
      "outputs": [
        {
          "name": "_nombre",
          "type": "string"
        },
        {
          "name": "_vision",
          "type": "string"
        },
        {
          "name": "_mision",
          "type": "string"
        },
        {
          "name": "_objective",
          "type": "int256"
        },
        {
          "name": "_balance",
          "type": "uint256"
        }
      ],
      "payable": false,
      "stateMutability": "view",
      "type": "function"
    },
    {
      "constant": false,
      "inputs": [
        {
          "name": "_addressONG",
          "type": "address"
        }
      ],
      "name": "donation",
      "outputs": [],
      "payable": true,
      "stateMutability": "payable",
      "type": "function"
    },
    {
      "constant": false,
      "inputs": [],
      "name": "confirmarDonacion",
      "outputs": [],
      "payable": true,
      "stateMutability": "payable",
      "type": "function"
    }
  ],
  "bytecode": "0x608060405234801561001057600080fd5b50610d72806100206000396000f30060806040526004361061006d576000357c0100000000000000000000000000000000000000000000000000000000900463ffffffff1680632659872a146100725780632d6eb7681461007c578063640998e0146101935780638ed29d8414610214578063f457ee5a146103b6575b600080fd5b61007a6103ec565b005b34801561008857600080fd5b50610179600480360381019080803590602001908201803590602001908080601f0160208091040260200160405190810160405280939291908181526020018383808284378201915050505050509192919290803590602001908201803590602001908080601f0160208091040260200160405190810160405280939291908181526020018383808284378201915050505050509192919290803590602001908201803590602001908080601f0160208091040260200160405190810160405280939291908181526020018383808284378201915050505050509192919290803590602001909291905050506103ee565b604051808215151515815260200191505060405180910390f35b34801561019f57600080fd5b506101fa600480360381019080803590602001908201803590602001908080601f016020809104026020016040519081016040528093929190818152602001838380828437820191505050505050919291929050505061072f565b604051808215151515815260200191505060405180910390f35b34801561022057600080fd5b50610255600480360381019080803573ffffffffffffffffffffffffffffffffffffffff1690602001909291905050506108d2565b60405180806020018060200180602001868152602001858152602001848103845289818151815260200191508051906020019080838360005b838110156102a957808201518184015260208101905061028e565b50505050905090810190601f1680156102d65780820380516001836020036101000a031916815260200191505b50848103835288818151815260200191508051906020019080838360005b8381101561030f5780820151818401526020810190506102f4565b50505050905090810190601f16801561033c5780820380516001836020036101000a031916815260200191505b50848103825287818151815260200191508051906020019080838360005b8381101561037557808201518184015260208101905061035a565b50505050905090810190601f1680156103a25780820380516001836020036101000a031916815260200191505b509850505050505050505060405180910390f35b6103ea600480360381019080803573ffffffffffffffffffffffffffffffffffffffff169060200190929190505050610c13565b005b565b600080600160003373ffffffffffffffffffffffffffffffffffffffff1673ffffffffffffffffffffffffffffffffffffffff16815260200190815260200160002060060160009054906101000a900460ff1615156107215785600160003373ffffffffffffffffffffffffffffffffffffffff1673ffffffffffffffffffffffffffffffffffffffff168152602001908152602001600020600101908051906020019061049d929190610ca1565b5060018060003373ffffffffffffffffffffffffffffffffffffffff1673ffffffffffffffffffffffffffffffffffffffff16815260200190815260200160002060060160006101000a81548160ff02191690831515021790555033600160003373ffffffffffffffffffffffffffffffffffffffff1673ffffffffffffffffffffffffffffffffffffffff16815260200190815260200160002060000160006101000a81548173ffffffffffffffffffffffffffffffffffffffff021916908373ffffffffffffffffffffffffffffffffffffffff16021790555084600160003373ffffffffffffffffffffffffffffffffffffffff1673ffffffffffffffffffffffffffffffffffffffff16815260200190815260200160002060030190805190602001906105cf929190610ca1565b5083600160003373ffffffffffffffffffffffffffffffffffffffff1673ffffffffffffffffffffffffffffffffffffffff1681526020019081526020016000206002019080519060200190610626929190610ca1565b5082600160003373ffffffffffffffffffffffffffffffffffffffff1673ffffffffffffffffffffffffffffffffffffffff16815260200190815260200160002060040181905550336000876040518082805190602001908083835b6020831015156106a75780518252602082019150602081019050602083039250610682565b6001836020036101000a038019825116818451168082178552505050505050905001915050908152602001604051809103902060006101000a81548173ffffffffffffffffffffffffffffffffffffffff021916908373ffffffffffffffffffffffffffffffffffffffff16021790555060019050610726565b600090505b50949350505050565b600080600260003373ffffffffffffffffffffffffffffffffffffffff1673ffffffffffffffffffffffffffffffffffffffff16815260200190815260200160002060020160009054906101000a900460ff1615156108c45782600260003373ffffffffffffffffffffffffffffffffffffffff1673ffffffffffffffffffffffffffffffffffffffff16815260200190815260200160002060010190805190602001906107de929190610ca1565b506001600260003373ffffffffffffffffffffffffffffffffffffffff1673ffffffffffffffffffffffffffffffffffffffff16815260200190815260200160002060020160006101000a81548160ff02191690831515021790555033600260003373ffffffffffffffffffffffffffffffffffffffff1673ffffffffffffffffffffffffffffffffffffffff16815260200190815260200160002060000160006101000a81548173ffffffffffffffffffffffffffffffffffffffff021916908373ffffffffffffffffffffffffffffffffffffffff160217905550600190506108c9565b600090505b80915050919050565b6060806060600080600160008773ffffffffffffffffffffffffffffffffffffffff1673ffffffffffffffffffffffffffffffffffffffff1681526020019081526020016000206001018054600181600116156101000203166002900480601f0160208091040260200160405190810160405280929190818152602001828054600181600116156101000203166002900480156109b05780601f10610985576101008083540402835291602001916109b0565b820191906000526020600020905b81548152906001019060200180831161099357829003601f168201915b50505050509450600160008773ffffffffffffffffffffffffffffffffffffffff1673ffffffffffffffffffffffffffffffffffffffff1681526020019081526020016000206003018054600181600116156101000203166002900480601f016020809104026020016040519081016040528092919081815260200182805460018160011615610100020316600290048015610a8d5780601f10610a6257610100808354040283529160200191610a8d565b820191906000526020600020905b815481529060010190602001808311610a7057829003601f168201915b50505050509350600160008773ffffffffffffffffffffffffffffffffffffffff1673ffffffffffffffffffffffffffffffffffffffff1681526020019081526020016000206002018054600181600116156101000203166002900480601f016020809104026020016040519081016040528092919081815260200182805460018160011615610100020316600290048015610b6a5780601f10610b3f57610100808354040283529160200191610b6a565b820191906000526020600020905b815481529060010190602001808311610b4d57829003601f168201915b50505050509250600160008773ffffffffffffffffffffffffffffffffffffffff1673ffffffffffffffffffffffffffffffffffffffff168152602001908152602001600020600401549150600160008773ffffffffffffffffffffffffffffffffffffffff1673ffffffffffffffffffffffffffffffffffffffff16815260200190815260200160002060050154905084848484849450945094509450945091939590929450565b34600160008373ffffffffffffffffffffffffffffffffffffffff1673ffffffffffffffffffffffffffffffffffffffff1681526020019081526020016000206005015401600160008373ffffffffffffffffffffffffffffffffffffffff1673ffffffffffffffffffffffffffffffffffffffff1681526020019081526020016000206005018190555050565b828054600181600116156101000203166002900490600052602060002090601f016020900481019282601f10610ce257805160ff1916838001178555610d10565b82800160010185558215610d10579182015b82811115610d0f578251825591602001919060010190610cf4565b5b509050610d1d9190610d21565b5090565b610d4391905b80821115610d3f576000816000905550600101610d27565b5090565b905600a165627a7a7230582099fdf9a06aef2f948bc634f2c8f652c20fac6296134bfeb0375d9de77c764b8c0029",
  "source": "pragma solidity ^0.4.17;\r\n\r\nimport \"./ConvertLib.sol\";\r\n\r\n// This is just a simple example of a coin-like contract.\r\n// It is not standards compatible and cannot be expected to talk to other\r\n// coin/token contracts. If you want to create a standards-compliant\r\n// token, see: https://github.com/ConsenSys/Tokens. Cheers!\r\n\r\ncontract ContractDonaciones {\r\n\r\n\tstruct DateTimeCreation {\r\n        uint16 year;\r\n        uint8 month;\r\n        uint8 day;\r\n\t}\r\n\r\n\tstruct ONG{\r\n\t\taddress addr;\r\n\t\tstring nombre;\r\n\t\tstring mision;\r\n\t\tstring vision;\r\n\t\tint objective;\r\n\t\tuint actualBalance;\r\n\t\t//DateTimeCreation creationDate;\r\n\t\tbool exists;\r\n\t\tmapping(address=>Donator) donatorsOfONG;\r\n\t}\r\n\r\n\tstruct Donator{\r\n\t\taddress addr;\r\n\t\tstring nombre;\r\n\t\tbool exists;\r\n\t\tDateTimeCreation FechaNacimiento;\r\n\t}\r\n\r\n\tmapping (string=> address) ONGnames;\r\n\tmapping (address=> ONG) ONGs;\r\n\tmapping(address => Donator) donators;\r\n\r\n\tevent checkAdvances (address _addressONG);\r\n\r\n\tfunction addDonator(string _nombre) public returns (bool){\r\n\t\tbool donatorAdded;\r\n\t\tif(!donators[msg.sender].exists) {\r\n\t\t\tdonators[msg.sender].nombre = _nombre;\r\n\t\t\tdonators[msg.sender].exists=true;\r\n\t\t\tdonators[msg.sender].addr=msg.sender;\r\n\t\t\tdonatorAdded=true;\r\n\t\t}\r\n\r\n\t\telse{\r\n\t\t\tdonatorAdded=false; \r\n\t\t}\t\r\n\t\treturn donatorAdded;\t\r\n\t}\r\n\r\n\tfunction addONG(string _nombre, string _vision, string _mision, int _objective) public returns (bool){\r\n\t\tbool ONGAdded;\r\n\t\tif(!ONGs[msg.sender].exists) {\r\n\t\t\tONGs[msg.sender].nombre = _nombre;\r\n\t\t\tONGs[msg.sender].exists=true;\r\n\t\t\tONGs[msg.sender].addr=msg.sender;\r\n\t\t\tONGs[msg.sender].vision = _vision;\r\n\t\t\tONGs[msg.sender].mision=_mision;\r\n\t\t\tONGs[msg.sender].objective=_objective;\r\n\t\t\t//ONGs[msg.sender].creationDate=_creationDate;\r\n\t\t\tONGnames[_nombre]=msg.sender;\r\n\t\t\tONGAdded=true;\r\n\t\t\t\r\n\t\t}\r\n\r\n\t\telse{\r\n\t\t\tONGAdded=false; \r\n\t\t}\t\t\r\n\t}\r\n\r\n\tfunction getONG(address _addressONG) public view returns (string _nombre, string _vision, string _mision, int _objective, uint _balance){\r\n\t\t_nombre = ONGs[_addressONG].nombre;\r\n\t\t_vision = ONGs[_addressONG].vision;\r\n\t\t_mision = ONGs[_addressONG].mision;\r\n\t\t_objective = ONGs[_addressONG].objective;\r\n\t\t_balance = ONGs[_addressONG].actualBalance;\r\n\t\treturn( _nombre,  _vision,  _mision,  _objective,  _balance);\r\n\t}\r\n\r\n\r\n\tfunction donation(address _addressONG) public payable {\r\n\t\t\t//address(this).transfer(msg.value);\r\n\t\t\tONGs[_addressONG].actualBalance= ONGs[_addressONG].actualBalance + msg.value;\t\r\n\t}\r\n\r\n\tfunction confirmarDonacion() public payable{\r\n\r\n\t}\r\n}\r\n",
  "sourcePath": "C:\\Users\\Jimena\\webPack\\contracts\\ContractDonaciones.sol",
  "compiler": {
    "name": "solc",
    "version": "0.4.24+commit.e67f0147.Emscripten.clang"
  },
  "schemaVersion": "2.0.0",
  "updatedAt": "2018-06-12T20:54:22.285Z"
}