{
  "contractName": "ContractDonaciones",
  "abi": [
    {
      "anonymous": false,
      "inputs": [
        {
          "indexed": false,
          "name": "_addressONG",
          "type": "address"
        }
      ],
      "name": "checkAdvances",
      "type": "event"
    },
    {
      "constant": false,
      "inputs": [
        {
          "name": "_CI",
          "type": "string"
        },
        {
          "name": "_nombre",
          "type": "string"
        },
        {
          "name": "_apellido",
          "type": "string"
        }
      ],
      "name": "addDonator",
      "outputs": [
        {
          "name": "",
          "type": "bool"
        }
      ],
      "payable": false,
      "stateMutability": "nonpayable",
      "type": "function"
    },
    {
      "constant": false,
      "inputs": [
        {
          "name": "_nombre",
          "type": "string"
        },
        {
          "name": "_vision",
          "type": "string"
        },
        {
          "name": "_mision",
          "type": "string"
        },
        {
          "name": "_objective",
          "type": "int256"
        }
      ],
      "name": "addONG",
      "outputs": [
        {
          "name": "",
          "type": "bool"
        }
      ],
      "payable": false,
      "stateMutability": "nonpayable",
      "type": "function"
    },
    {
      "constant": true,
      "inputs": [
        {
          "name": "_addressONG",
          "type": "address"
        }
      ],
      "name": "getDonator",
      "outputs": [
        {
          "name": "_nombre",
          "type": "string"
        },
        {
          "name": "_apellido",
          "type": "string"
        },
        {
          "name": "_CI",
          "type": "string"
        }
      ],
      "payable": false,
      "stateMutability": "view",
      "type": "function"
    },
    {
      "constant": true,
      "inputs": [
        {
          "name": "_addressONG",
          "type": "address"
        }
      ],
      "name": "getONG",
      "outputs": [
        {
          "name": "_nombre",
          "type": "string"
        },
        {
          "name": "_vision",
          "type": "string"
        },
        {
          "name": "_mision",
          "type": "string"
        },
        {
          "name": "_objective",
          "type": "int256"
        },
        {
          "name": "_balance",
          "type": "uint256"
        }
      ],
      "payable": false,
      "stateMutability": "view",
      "type": "function"
    },
    {
      "constant": false,
      "inputs": [
        {
          "name": "_addressONG",
          "type": "address"
        }
      ],
      "name": "donation",
      "outputs": [],
      "payable": true,
      "stateMutability": "payable",
      "type": "function"
    },
    {
      "constant": false,
      "inputs": [
        {
          "name": "_ong",
          "type": "address"
        }
      ],
      "name": "confirmarDonacion",
      "outputs": [],
      "payable": true,
      "stateMutability": "payable",
      "type": "function"
    }
  ],
  "bytecode": "0x608060405234801561001057600080fd5b50611393806100206000396000f300608060405260043610610078576000357c0100000000000000000000000000000000000000000000000000000000900463ffffffff1680631627c1d71461007d57806323c4948c1461018a5780632d6eb7681461031e5780638ed29d8414610435578063ba0d6be7146105d7578063f457ee5a1461060d575b600080fd5b34801561008957600080fd5b50610170600480360381019080803590602001908201803590602001908080601f0160208091040260200160405190810160405280939291908181526020018383808284378201915050505050509192919290803590602001908201803590602001908080601f0160208091040260200160405190810160405280939291908181526020018383808284378201915050505050509192919290803590602001908201803590602001908080601f0160208091040260200160405190810160405280939291908181526020018383808284378201915050505050509192919290505050610643565b604051808215151515815260200191505060405180910390f35b34801561019657600080fd5b506101cb600480360381019080803573ffffffffffffffffffffffffffffffffffffffff169060200190929190505050610896565b60405180806020018060200180602001848103845287818151815260200191508051906020019080838360005b838110156102135780820151818401526020810190506101f8565b50505050905090810190601f1680156102405780820380516001836020036101000a031916815260200191505b50848103835286818151815260200191508051906020019080838360005b8381101561027957808201518184015260208101905061025e565b50505050905090810190601f1680156102a65780820380516001836020036101000a031916815260200191505b50848103825285818151815260200191508051906020019080838360005b838110156102df5780820151818401526020810190506102c4565b50505050905090810190601f16801561030c5780820380516001836020036101000a031916815260200191505b50965050505050505060405180910390f35b34801561032a57600080fd5b5061041b600480360381019080803590602001908201803590602001908080601f0160208091040260200160405190810160405280939291908181526020018383808284378201915050505050509192919290803590602001908201803590602001908080601f0160208091040260200160405190810160405280939291908181526020018383808284378201915050505050509192919290803590602001908201803590602001908080601f016020809104026020016040519081016040528093929190818152602001838380828437820191505050505050919291929080359060200190929190505050610b42565b604051808215151515815260200191505060405180910390f35b34801561044157600080fd5b50610476600480360381019080803573ffffffffffffffffffffffffffffffffffffffff169060200190929190505050610e86565b60405180806020018060200180602001868152602001858152602001848103845289818151815260200191508051906020019080838360005b838110156104ca5780820151818401526020810190506104af565b50505050905090810190601f1680156104f75780820380516001836020036101000a031916815260200191505b50848103835288818151815260200191508051906020019080838360005b83811015610530578082015181840152602081019050610515565b50505050905090810190601f16801561055d5780820380516001836020036101000a031916815260200191505b50848103825287818151815260200191508051906020019080838360005b8381101561059657808201518184015260208101905061057b565b50505050905090810190601f1680156105c35780820380516001836020036101000a031916815260200191505b509850505050505050505060405180910390f35b61060b600480360381019080803573ffffffffffffffffffffffffffffffffffffffff1690602001909291905050506111c7565b005b610641600480360381019080803573ffffffffffffffffffffffffffffffffffffffff1690602001909291905050506111ca565b005b600080600260003373ffffffffffffffffffffffffffffffffffffffff1673ffffffffffffffffffffffffffffffffffffffff16815260200190815260200160002060040160009054906101000a900460ff1615156108865783600260003373ffffffffffffffffffffffffffffffffffffffff1673ffffffffffffffffffffffffffffffffffffffff16815260200190815260200160002060010190805190602001906106f29291906112c2565b5082600260003373ffffffffffffffffffffffffffffffffffffffff1673ffffffffffffffffffffffffffffffffffffffff16815260200190815260200160002060020190805190602001906107499291906112c2565b5084600260003373ffffffffffffffffffffffffffffffffffffffff1673ffffffffffffffffffffffffffffffffffffffff16815260200190815260200160002060030190805190602001906107a09291906112c2565b506001600260003373ffffffffffffffffffffffffffffffffffffffff1673ffffffffffffffffffffffffffffffffffffffff16815260200190815260200160002060040160006101000a81548160ff02191690831515021790555033600260003373ffffffffffffffffffffffffffffffffffffffff1673ffffffffffffffffffffffffffffffffffffffff16815260200190815260200160002060000160006101000a81548173ffffffffffffffffffffffffffffffffffffffff021916908373ffffffffffffffffffffffffffffffffffffffff1602179055506001905061088b565b600090505b809150509392505050565b6060806060600260008573ffffffffffffffffffffffffffffffffffffffff1673ffffffffffffffffffffffffffffffffffffffff1681526020019081526020016000206001018054600181600116156101000203166002900480601f0160208091040260200160405190810160405280929190818152602001828054600181600116156101000203166002900480156109715780601f1061094657610100808354040283529160200191610971565b820191906000526020600020905b81548152906001019060200180831161095457829003601f168201915b50505050509250600260008573ffffffffffffffffffffffffffffffffffffffff1673ffffffffffffffffffffffffffffffffffffffff1681526020019081526020016000206002018054600181600116156101000203166002900480601f016020809104026020016040519081016040528092919081815260200182805460018160011615610100020316600290048015610a4e5780601f10610a2357610100808354040283529160200191610a4e565b820191906000526020600020905b815481529060010190602001808311610a3157829003601f168201915b50505050509150600260008573ffffffffffffffffffffffffffffffffffffffff1673ffffffffffffffffffffffffffffffffffffffff1681526020019081526020016000206003018054600181600116156101000203166002900480601f016020809104026020016040519081016040528092919081815260200182805460018160011615610100020316600290048015610b2b5780601f10610b0057610100808354040283529160200191610b2b565b820191906000526020600020905b815481529060010190602001808311610b0e57829003601f168201915b505050505090508282829250925092509193909250565b600080600160003373ffffffffffffffffffffffffffffffffffffffff1673ffffffffffffffffffffffffffffffffffffffff16815260200190815260200160002060060160009054906101000a900460ff161515610e755785600160003373ffffffffffffffffffffffffffffffffffffffff1673ffffffffffffffffffffffffffffffffffffffff1681526020019081526020016000206001019080519060200190610bf19291906112c2565b5060018060003373ffffffffffffffffffffffffffffffffffffffff1673ffffffffffffffffffffffffffffffffffffffff16815260200190815260200160002060060160006101000a81548160ff02191690831515021790555033600160003373ffffffffffffffffffffffffffffffffffffffff1673ffffffffffffffffffffffffffffffffffffffff16815260200190815260200160002060000160006101000a81548173ffffffffffffffffffffffffffffffffffffffff021916908373ffffffffffffffffffffffffffffffffffffffff16021790555084600160003373ffffffffffffffffffffffffffffffffffffffff1673ffffffffffffffffffffffffffffffffffffffff1681526020019081526020016000206003019080519060200190610d239291906112c2565b5083600160003373ffffffffffffffffffffffffffffffffffffffff1673ffffffffffffffffffffffffffffffffffffffff1681526020019081526020016000206002019080519060200190610d7a9291906112c2565b5082600160003373ffffffffffffffffffffffffffffffffffffffff1673ffffffffffffffffffffffffffffffffffffffff16815260200190815260200160002060040181905550336000876040518082805190602001908083835b602083101515610dfb5780518252602082019150602081019050602083039250610dd6565b6001836020036101000a038019825116818451168082178552505050505050905001915050908152602001604051809103902060006101000a81548173ffffffffffffffffffffffffffffffffffffffff021916908373ffffffffffffffffffffffffffffffffffffffff16021790555060019050610e7a565b600090505b80915050949350505050565b6060806060600080600160008773ffffffffffffffffffffffffffffffffffffffff1673ffffffffffffffffffffffffffffffffffffffff1681526020019081526020016000206001018054600181600116156101000203166002900480601f016020809104026020016040519081016040528092919081815260200182805460018160011615610100020316600290048015610f645780601f10610f3957610100808354040283529160200191610f64565b820191906000526020600020905b815481529060010190602001808311610f4757829003601f168201915b50505050509450600160008773ffffffffffffffffffffffffffffffffffffffff1673ffffffffffffffffffffffffffffffffffffffff1681526020019081526020016000206003018054600181600116156101000203166002900480601f0160208091040260200160405190810160405280929190818152602001828054600181600116156101000203166002900480156110415780601f1061101657610100808354040283529160200191611041565b820191906000526020600020905b81548152906001019060200180831161102457829003601f168201915b50505050509350600160008773ffffffffffffffffffffffffffffffffffffffff1673ffffffffffffffffffffffffffffffffffffffff1681526020019081526020016000206002018054600181600116156101000203166002900480601f01602080910402602001604051908101604052809291908181526020018280546001816001161561010002031660029004801561111e5780601f106110f35761010080835404028352916020019161111e565b820191906000526020600020905b81548152906001019060200180831161110157829003601f168201915b50505050509250600160008773ffffffffffffffffffffffffffffffffffffffff1673ffffffffffffffffffffffffffffffffffffffff168152602001908152602001600020600401549150600160008773ffffffffffffffffffffffffffffffffffffffff1673ffffffffffffffffffffffffffffffffffffffff16815260200190815260200160002060050154905084848484849450945094509450945091939590929450565b50565b6000341115156111d957600080fd5b600160008273ffffffffffffffffffffffffffffffffffffffff1673ffffffffffffffffffffffffffffffffffffffff16815260200190815260200160002060060160009054906101000a900460ff16151561123457600080fd5b34600160008373ffffffffffffffffffffffffffffffffffffffff1673ffffffffffffffffffffffffffffffffffffffff1681526020019081526020016000206005015401600160008373ffffffffffffffffffffffffffffffffffffffff1673ffffffffffffffffffffffffffffffffffffffff1681526020019081526020016000206005018190555050565b828054600181600116156101000203166002900490600052602060002090601f016020900481019282601f1061130357805160ff1916838001178555611331565b82800160010185558215611331579182015b82811115611330578251825591602001919060010190611315565b5b50905061133e9190611342565b5090565b61136491905b80821115611360576000816000905550600101611348565b5090565b905600a165627a7a723058206ac774592add5d9110e02c0c8463a53be7813d45c90eae44786c03b0669cb8220029",
  "source": "pragma solidity ^0.4.17;\r\n\r\nimport \"./ConvertLib.sol\";\r\n\r\n// This is just a simple example of a coin-like contract.\r\n// It is not standards compatible and cannot be expected to talk to other\r\n// coin/token contracts. If you want to create a standards-compliant\r\n// token, see: https://github.com/ConsenSys/Tokens. Cheers!\r\n\r\ncontract ContractDonaciones {\r\n\r\n\tstruct DateTimeCreation {\r\n        uint16 year;\r\n        uint8 month;\r\n        uint8 day;\r\n\t}\r\n\r\n\tstruct ONG{\r\n\t\taddress addr;\r\n\t\tstring nombre;\r\n\t\tstring mision;\r\n\t\tstring vision;\r\n\t\tint objective;\r\n\t\tuint actualBalance;\r\n\t\t//DateTimeCreation creationDate;\r\n\t\tbool exists;\r\n\t\tmapping(address=>Donator) donatorsOfONG;\r\n\t}\r\n\r\n\tstruct Donator{\r\n\t\taddress addr;\r\n\t\tstring nombre;\r\n\t\tstring apellido;\r\n\t\tstring CI;\r\n\t\tbool exists;\r\n\t\t//DateTimeCreation FechaNacimiento;\r\n\t}\r\n\r\n\tmapping (string=> address) ONGnames;\r\n\tmapping (address=> ONG) ONGs;\r\n\tmapping(address => Donator) donators;\r\n\r\n\tevent checkAdvances (address _addressONG);\r\n\r\n\tfunction addDonator(string _CI, string _nombre, string _apellido) public returns (bool){\r\n\t\tbool donatorAdded;\r\n\t\tif(!donators[msg.sender].exists) {\r\n\t\t\tdonators[msg.sender].nombre = _nombre;\r\n\t\t\tdonators[msg.sender].apellido= _apellido;\r\n\t\t\tdonators[msg.sender].CI= _CI;\r\n\t\t\tdonators[msg.sender].exists=true;\r\n\t\t\tdonators[msg.sender].addr=msg.sender;\r\n\t\t\tdonatorAdded=true;\r\n\t\t}\r\n\t\telse{\r\n\t\t\tdonatorAdded=false; \r\n\t\t}\t\r\n\t\treturn donatorAdded;\t\r\n\t}\r\n\r\n\tfunction addONG(string _nombre, string _vision, string _mision, int _objective) public returns (bool){\r\n\t\tbool ONGAdded;\r\n\t\tif(!ONGs[msg.sender].exists) {\r\n\t\t\tONGs[msg.sender].nombre = _nombre;\r\n\t\t\tONGs[msg.sender].exists=true;\r\n\t\t\tONGs[msg.sender].addr=msg.sender;\r\n\t\t\tONGs[msg.sender].vision = _vision;\r\n\t\t\tONGs[msg.sender].mision=_mision;\r\n\t\t\tONGs[msg.sender].objective=_objective;\r\n\t\t\t//ONGs[msg.sender].creationDate=_creationDate;\r\n\t\t\tONGnames[_nombre]=msg.sender;\r\n\t\t\tONGAdded=true;\r\n\t\t}\r\n\t\telse{\r\n\t\t\tONGAdded=false; \r\n\t\t}\r\n\t\treturn ONGAdded;\t\t\r\n\t}\r\n\r\n\tfunction getDonator(address _addressONG) public view returns (string _nombre, string _apellido, string _CI){\r\n\t\t_nombre = donators[_addressONG].nombre;\r\n\t\t_apellido = donators[_addressONG].apellido;\r\n\t\t_CI = donators[_addressONG].CI;\r\n\t\treturn( _nombre,  _apellido,  _CI);\r\n\t}\r\n\r\n\tfunction getONG(address _addressONG) public view returns (string _nombre, string _vision, string _mision, int _objective, uint _balance){\r\n\t\t_nombre = ONGs[_addressONG].nombre;\r\n\t\t_vision = ONGs[_addressONG].vision;\r\n\t\t_mision = ONGs[_addressONG].mision;\r\n\t\t_objective = ONGs[_addressONG].objective;\r\n\t\t_balance = ONGs[_addressONG].actualBalance;\r\n\t\treturn( _nombre,  _vision,  _mision,  _objective,  _balance);\r\n\t}\r\n\r\n\r\n\tfunction donation(address _addressONG) public payable {\r\n\t\t\t//address(this).transfer(msg.value);\r\n\t\trequire(msg.value > 0);\r\n\t\trequire(ONGs[_addressONG].exists);\r\n\t\tONGs[_addressONG].actualBalance= ONGs[_addressONG].actualBalance + msg.value;\t\r\n\t}\r\n\r\n\tfunction confirmarDonacion(address _ong) public payable {\r\n\r\n\t}\r\n}\r\n",
  "sourcePath": "C:\\Users\\Jimena\\webPack\\contracts\\ContractDonaciones.sol",
  "compiler": {
    "name": "solc",
    "version": "0.4.24+commit.e67f0147.Emscripten.clang"
  },
  "schemaVersion": "2.0.0",
  "updatedAt": "2018-06-13T11:17:53.417Z"
}